:03000000020006F5
:03005F0002000399
:0300030002006296
:10006200C2A07E007F007C647D001CBCFF011DECF1
:100072004D70F70EBE00010FC3EE9464EF648094DE
:100082008040E3D2A07E007F007C647D001CBCFF28
:10009200011DEC4D70F70EBE00010FC3EE9464EF2C
:0800A2006480948040E380B803
:06003500E478FFF6D8FD9F
:100013007900E94400601B7A009000AE780175A076
:1000230000E493F2A308B8000205A0D9F4DAF2754C
:02003300A0FF2C
:10003B007800E84400600A790175A000E4F309D860
:10004B00FC7800E84400600C7900900001E4F0A318
:04005B00D8FCD9FAFA
:0D0006007581071200AAE582600302000365
:0400AA007582002239
:00000001FF
