:03000000020006F5
:10005F0075083F750906750A5B750B4F750C66754C
:10006F000D6D750E7D750F0775107F75116F7512FC
:10007F007775137C75143975155E7516797517714B
:06008F0075188002000359
:0300030002010DEA
:10009500E582FF24F8500122EF240A83F582EF243C
:1000A5000C83F583E473BBC2C9D0D7DEE5EC000051
:1000B500000000000000C2A2C2A3C2A422D2A2C2B4
:1000C500A3C2A422C2A2D2A3C2A422D2A2D2A3C2F4
:1000D500A422C2A2C2A3D2A422D2A2C2A3D2A42283
:1000E500C2A2D2A3D2A422D2A2D2A3D2A422E582B2
:1000F5002408F9878022AE82AF838E048F051EBE49
:10010500FF011FEC4D70F3227F008F055305078D0E
:1001150082C007C0051200F3D0058D82120095D06C
:0E012500070F9086A0C0071200FBD00780DCF9
:06003500E478FFF6D8FD9F
:100013007900E94400601B7A00900137780175A0EC
:1000230000E493F2A308B8000205A0D9F4DAF2754C
:02003300A0FF2C
:10003B007800E84400600A790175A000E4F309D860
:10004B00FC7800E84400600C7900900001E4F0A318
:04005B00D8FCD9FAFA
:0D000600758118120133E5826003020003CA
:0401330075820022AF
:00000001FF
