:060000000200090200836A
:0300620002000693
:0300060002007E77
:20006500AE82AF838E048F051EBEFF011FEC4D70F322D288D2A8D2AF2212007780FEC020DC
:20008500C0E0C0F0C082C083C007C006C005C004C003C002C001C000C0D075D0009003E81A
:2000A50012006520B202B2A0D0D0D000D001D002D003D004D005D006D007D083D082D0F0FD
:0500C500D0E0D0203264
:06003800E478FFF6D8FD9C
:200016007900E94400601B7A009000CE780175A000E493F2A308B8000205A0D9F4DAF275C2
:02003600A0FF29
:20003E007800E84400600A790175A000E4F309D8FC7800E84400600C7900900001E4F0A3C0
:04005E00D8FCD9FAF7
:0D0009007581201200CAE582600302000626
:0400CA007582002219
:00000001FF
