:03000000020006F5
:03005F0002000399
:0300030002006296
:10006200D2A7C2A07E007F007C647D001CBCFF0181
:100072001DEC4D70F70EBE00010FC3EE9464EF64E9
:1000820080948040E3D2A0C2A17E007F007C647D88
:10009200001CBCFF011DEC4D70F70EBE00010FC32A
:1000A200EE9464EF6480948040E3D2A1C2A27E0009
:1000B2007F007C647D001CBCFF011DEC4D70F70EBF
:1000C200BE00010FC3EE9464EF6480948040E3D2DB
:1000D200A2C2A37E007F007C647D001CBCFF011DC8
:1000E200EC4D70F70EBE00010FC3EE9464EF648016
:1000F200948040E3D2A3C2A47E007F007C647D0092
:100102001CBCFF011DEC4D70F70EBE00010FC3EECB
:100112009464EF6480948040E3D2A4C2A57E007F01
:10012200007C647D001CBCFF011DEC4D70F70EBE0F
:1001320000010FC3EE9464EF6480948040E3D2A583
:10014200C2A67E007F007C647D001CBCFF011DEC0A
:100152004D70F70EBE00010FC3EE9464EF648094FD
:100162008040E3D2A6C2A77E007F007C647D001C93
:10017200BCFF011DEC4D70F70EBE00010FC3EE94E3
:0B01820064EF6480948040E3020062A0
:06003500E478FFF6D8FD9F
:100013007900E94400601B7A00900191780175A092
:1000230000E493F2A308B8000205A0D9F4DAF2754C
:02003300A0FF2C
:10003B007800E84400600A790175A000E4F309D860
:10004B00FC7800E84400600C7900900001E4F0A318
:04005B00D8FCD9FAFA
:0D00060075810712018DE582600302000381
:04018D007582002255
:00000001FF
